{
  "contractName": "ClientRegistry",
  "abi": [
    {
      "inputs": [],
      "stateMutability": "nonpayable",
      "type": "constructor"
    },
    {
      "inputs": [],
      "name": "bank__NotOwner",
      "type": "error"
    },
    {
      "inputs": [
        {
          "internalType": "string",
          "name": "name",
          "type": "string"
        },
        {
          "internalType": "uint256",
          "name": "cin",
          "type": "uint256"
        }
      ],
      "name": "addclient",
      "outputs": [],
      "stateMutability": "nonpayable",
      "type": "function"
    },
    {
      "inputs": [
        {
          "internalType": "uint256",
          "name": "clientid",
          "type": "uint256"
        }
      ],
      "name": "getcltindex",
      "outputs": [
        {
          "internalType": "uint256",
          "name": "",
          "type": "uint256"
        }
      ],
      "stateMutability": "view",
      "type": "function",
      "constant": true
    },
    {
      "inputs": [
        {
          "internalType": "uint256",
          "name": "Id",
          "type": "uint256"
        }
      ],
      "name": "CheckisProcessedbyId",
      "outputs": [
        {
          "internalType": "bool",
          "name": "",
          "type": "bool"
        }
      ],
      "stateMutability": "view",
      "type": "function",
      "constant": true
    },
    {
      "inputs": [
        {
          "internalType": "uint256",
          "name": "Id",
          "type": "uint256"
        }
      ],
      "name": "CheckisAcceptedbyId",
      "outputs": [
        {
          "internalType": "bool",
          "name": "",
          "type": "bool"
        }
      ],
      "stateMutability": "view",
      "type": "function",
      "constant": true
    },
    {
      "inputs": [
        {
          "internalType": "uint256",
          "name": "id",
          "type": "uint256"
        }
      ],
      "name": "ClientExistsById",
      "outputs": [
        {
          "internalType": "bool",
          "name": "",
          "type": "bool"
        }
      ],
      "stateMutability": "view",
      "type": "function",
      "constant": true
    },
    {
      "inputs": [
        {
          "internalType": "bool",
          "name": "isaccepted",
          "type": "bool"
        },
        {
          "internalType": "uint256",
          "name": "clientid",
          "type": "uint256"
        }
      ],
      "name": "ProcessCLient",
      "outputs": [],
      "stateMutability": "nonpayable",
      "type": "function"
    },
    {
      "inputs": [
        {
          "internalType": "uint256",
          "name": "id",
          "type": "uint256"
        }
      ],
      "name": "cltname",
      "outputs": [
        {
          "internalType": "string",
          "name": "",
          "type": "string"
        }
      ],
      "stateMutability": "view",
      "type": "function",
      "constant": true
    },
    {
      "inputs": [],
      "name": "getclients",
      "outputs": [
        {
          "components": [
            {
              "internalType": "string",
              "name": "name",
              "type": "string"
            },
            {
              "internalType": "uint256",
              "name": "cin",
              "type": "uint256"
            },
            {
              "internalType": "bool",
              "name": "isprocessed",
              "type": "bool"
            },
            {
              "internalType": "bool",
              "name": "isaccepted",
              "type": "bool"
            },
            {
              "internalType": "uint256",
              "name": "proofOfExistance",
              "type": "uint256"
            }
          ],
          "internalType": "struct ClientRegistry.client[]",
          "name": "",
          "type": "tuple[]"
        }
      ],
      "stateMutability": "view",
      "type": "function",
      "constant": true
    }
  ],
  "bytecode": "0x608060405234801561001057600080fd5b50336000806101000a81548173ffffffffffffffffffffffffffffffffffffffff021916908373ffffffffffffffffffffffffffffffffffffffff1602179055506111ca806100606000396000f3fe608060405234801561001057600080fd5b50600436106100885760003560e01c806368b377291161005b57806368b3772914610139578063712f4826146101695780638d2d862214610185578063bf4c3be2146101a357610088565b80630a245f1a1461008d578063169d27ae146100bd57806354e8ab61146100ed5780635c08e53c1461011d575b600080fd5b6100a760048036038101906100a29190610912565b6101d3565b6040516100b491906109cf565b60405180910390f35b6100d760048036038101906100d29190610912565b6102cf565b6040516100e49190610a0c565b60405180910390f35b61010760048036038101906101029190610912565b610304565b6040516101149190610a0c565b60405180910390f35b61013760048036038101906101329190610a53565b610351565b005b610153600480360381019061014e9190610912565b610455565b6040516101609190610a0c565b60405180910390f35b610183600480360381019061017e9190610bc8565b610537565b005b61018d61061e565b60405161019a9190610dc4565b60405180910390f35b6101bd60048036038101906101b89190610912565b61083f565b6040516101ca9190610df5565b60405180910390f35b60606101de82610455565b1561029157600160006101f08461083f565b8152602001908152602001600020600001805461020c90610e3f565b80601f016020809104026020016040519081016040528092919081815260200182805461023890610e3f565b80156102855780601f1061025a57610100808354040283529160200191610285565b820191906000526020600020905b81548152906001019060200180831161026857829003601f168201915b505050505090506102ca565b6040518060400160405280600881526020017f6e6f74666f756e6400000000000000000000000000000000000000000000000081525090505b919050565b6000600160006102de8461083f565b815260200190815260200160002060020160019054906101000a900460ff169050919050565b600061030f82610455565b1561034757600160006103218461083f565b815260200190815260200160002060020160009054906101000a900460ff16905061034c565b600090505b919050565b60008054906101000a900473ffffffffffffffffffffffffffffffffffffffff1673ffffffffffffffffffffffffffffffffffffffff163373ffffffffffffffffffffffffffffffffffffffff16146103d6576040517fa8ea396e00000000000000000000000000000000000000000000000000000000815260040160405180910390fd5b6103df81610455565b156104515781600160006103f28461083f565b815260200190815260200160002060020160016101000a81548160ff02191690831515021790555060018060006104288461083f565b815260200190815260200160002060020160006101000a81548160ff0219169083151502179055505b5050565b60008060009054906101000a900473ffffffffffffffffffffffffffffffffffffffff1673ffffffffffffffffffffffffffffffffffffffff163373ffffffffffffffffffffffffffffffffffffffff16146104dd576040517fa8ea396e00000000000000000000000000000000000000000000000000000000815260040160405180910390fd5b60005b60025481101561052c5782600160006104f88661083f565b81526020019081526020016000206001015403610519576001915050610532565b808061052490610e9f565b9150506104e0565b50600090505b919050565b60006040518060a00160405280848152602001838152602001600015158152602001600015158152602001600181525090506000151561057683610455565b151503610619578060016000600254815260200190815260200160002060008201518160000190816105a89190611093565b506020820151816001015560408201518160020160006101000a81548160ff02191690831515021790555060608201518160020160016101000a81548160ff021916908315150217905550608082015181600301559050506002600081548092919061061390610e9f565b91905055505b505050565b606060008054906101000a900473ffffffffffffffffffffffffffffffffffffffff1673ffffffffffffffffffffffffffffffffffffffff163373ffffffffffffffffffffffffffffffffffffffff16146106a5576040517fa8ea396e00000000000000000000000000000000000000000000000000000000815260040160405180910390fd5b600060025467ffffffffffffffff8111156106c3576106c2610a9d565b5b6040519080825280602002602001820160405280156106fc57816020015b6106e9610895565b8152602001906001900390816106e15790505b50905060005b60025481101561083757600160008281526020019081526020016000206040518060a001604052908160008201805461073a90610e3f565b80601f016020809104026020016040519081016040528092919081815260200182805461076690610e3f565b80156107b35780601f10610788576101008083540402835291602001916107b3565b820191906000526020600020905b81548152906001019060200180831161079657829003601f168201915b50505050508152602001600182015481526020016002820160009054906101000a900460ff161515151581526020016002820160019054906101000a900460ff1615151515815260200160038201548152505082828151811061081957610818611165565b5b6020026020010181905250808061082f90610e9f565b915050610702565b508091505090565b600080600090505b60025481101561088a57826001600083815260200190815260200160002060010154036108775780915050610890565b808061088290610e9f565b915050610847565b50600090505b919050565b6040518060a001604052806060815260200160008152602001600015158152602001600015158152602001600081525090565b6000604051905090565b600080fd5b600080fd5b6000819050919050565b6108ef816108dc565b81146108fa57600080fd5b50565b60008135905061090c816108e6565b92915050565b600060208284031215610928576109276108d2565b5b6000610936848285016108fd565b91505092915050565b600081519050919050565b600082825260208201905092915050565b60005b8381101561097957808201518184015260208101905061095e565b60008484015250505050565b6000601f19601f8301169050919050565b60006109a18261093f565b6109ab818561094a565b93506109bb81856020860161095b565b6109c481610985565b840191505092915050565b600060208201905081810360008301526109e98184610996565b905092915050565b60008115159050919050565b610a06816109f1565b82525050565b6000602082019050610a2160008301846109fd565b92915050565b610a30816109f1565b8114610a3b57600080fd5b50565b600081359050610a4d81610a27565b92915050565b60008060408385031215610a6a57610a696108d2565b5b6000610a7885828601610a3e565b9250506020610a89858286016108fd565b9150509250929050565b600080fd5b600080fd5b7f4e487b7100000000000000000000000000000000000000000000000000000000600052604160045260246000fd5b610ad582610985565b810181811067ffffffffffffffff82111715610af457610af3610a9d565b5b80604052505050565b6000610b076108c8565b9050610b138282610acc565b919050565b600067ffffffffffffffff821115610b3357610b32610a9d565b5b610b3c82610985565b9050602081019050919050565b82818337600083830152505050565b6000610b6b610b6684610b18565b610afd565b905082815260208101848484011115610b8757610b86610a98565b5b610b92848285610b49565b509392505050565b600082601f830112610baf57610bae610a93565b5b8135610bbf848260208601610b58565b91505092915050565b60008060408385031215610bdf57610bde6108d2565b5b600083013567ffffffffffffffff811115610bfd57610bfc6108d7565b5b610c0985828601610b9a565b9250506020610c1a858286016108fd565b9150509250929050565b600081519050919050565b600082825260208201905092915050565b6000819050602082019050919050565b600082825260208201905092915050565b6000610c6c8261093f565b610c768185610c50565b9350610c8681856020860161095b565b610c8f81610985565b840191505092915050565b610ca3816108dc565b82525050565b610cb2816109f1565b82525050565b600060a0830160008301518482036000860152610cd58282610c61565b9150506020830151610cea6020860182610c9a565b506040830151610cfd6040860182610ca9565b506060830151610d106060860182610ca9565b506080830151610d236080860182610c9a565b508091505092915050565b6000610d3a8383610cb8565b905092915050565b6000602082019050919050565b6000610d5a82610c24565b610d648185610c2f565b935083602082028501610d7685610c40565b8060005b85811015610db25784840389528151610d938582610d2e565b9450610d9e83610d42565b925060208a01995050600181019050610d7a565b50829750879550505050505092915050565b60006020820190508181036000830152610dde8184610d4f565b905092915050565b610def816108dc565b82525050565b6000602082019050610e0a6000830184610de6565b92915050565b7f4e487b7100000000000000000000000000000000000000000000000000000000600052602260045260246000fd5b60006002820490506001821680610e5757607f821691505b602082108103610e6a57610e69610e10565b5b50919050565b7f4e487b7100000000000000000000000000000000000000000000000000000000600052601160045260246000fd5b6000610eaa826108dc565b91507fffffffffffffffffffffffffffffffffffffffffffffffffffffffffffffffff8203610edc57610edb610e70565b5b600182019050919050565b60008190508160005260206000209050919050565b60006020601f8301049050919050565b600082821b905092915050565b600060088302610f497fffffffffffffffffffffffffffffffffffffffffffffffffffffffffffffffff82610f0c565b610f538683610f0c565b95508019841693508086168417925050509392505050565b6000819050919050565b6000610f90610f8b610f86846108dc565b610f6b565b6108dc565b9050919050565b6000819050919050565b610faa83610f75565b610fbe610fb682610f97565b848454610f19565b825550505050565b600090565b610fd3610fc6565b610fde818484610fa1565b505050565b5b8181101561100257610ff7600082610fcb565b600181019050610fe4565b5050565b601f8211156110475761101881610ee7565b61102184610efc565b81016020851015611030578190505b61104461103c85610efc565b830182610fe3565b50505b505050565b600082821c905092915050565b600061106a6000198460080261104c565b1980831691505092915050565b60006110838383611059565b9150826002028217905092915050565b61109c8261093f565b67ffffffffffffffff8111156110b5576110b4610a9d565b5b6110bf8254610e3f565b6110ca828285611006565b600060209050601f8311600181146110fd57600084156110eb578287015190505b6110f58582611077565b86555061115d565b601f19841661110b86610ee7565b60005b828110156111335784890151825560018201915060208501945060208101905061110e565b86831015611150578489015161114c601f891682611059565b8355505b6001600288020188555050505b505050505050565b7f4e487b7100000000000000000000000000000000000000000000000000000000600052603260045260246000fdfea2646970667358221220214cfce639eef7371801ce3ececfe4752185e90e59b8ee07954c3de2eb9a860064736f6c63430008110033",
  "immutableReferences": {},
  "source": "// SPDX-License-Identifier: MIT\n// 1. Pragma\npragma solidity ^0.8.7;\n\nerror bank__NotOwner();\n\ncontract ClientRegistry {\n    struct client {\n        string name;\n        uint256 cin;\n        bool isprocessed;\n        bool isaccepted;\n        uint256 proofOfExistance;\n    }\n    address private bank_muhafiz_id;\n    mapping(uint256 => client) clientsbyIds;\n    uint ClientsCount; \n    constructor() {\n        bank_muhafiz_id = msg.sender;\n    }\n\n    modifier onlyOwner() {\n        // require(msg.sender == i_owner);\n        if (msg.sender != bank_muhafiz_id){ \n            \n        revert bank__NotOwner();}\n        _;\n    }\n\n    function addclient(string memory name, uint256 cin) public {\n        client memory clt = client(name, cin, false, false, 1);\n        if (ClientExistsById(cin) == false) \n       { clientsbyIds[ClientsCount] = clt;\n        ClientsCount++;}\n    }\n    function getcltindex(uint256 clientid) public view returns (uint256)\n    {\n        for (uint256 i = 0; i < ClientsCount; i++) {\n            if(clientsbyIds[i].cin==clientid)\n                return i;\n        }\n        return 0;\n\n    }\n    function CheckisProcessedbyId(uint256 Id) public view returns (bool) {\n\n        if(ClientExistsById(Id))\n        {\n        return clientsbyIds[getcltindex(Id)].isprocessed;\n        }\n        else \n        return false;\n    }\n\n    function CheckisAcceptedbyId(uint256 Id) public view returns (bool) {\n        return clientsbyIds[getcltindex(Id)].isaccepted;\n    }\n\n    function ClientExistsById(uint256 id) public view onlyOwner  returns (bool) {\n        for (uint i = 0; i < ClientsCount; i++) {\n        if(clientsbyIds[getcltindex(id)].cin==id)\n        return true;\n        }\n        return false;\n    }\n\n    function ProcessCLient(bool isaccepted, uint256 clientid) public onlyOwner {\n        if (ClientExistsById(clientid)){\n            clientsbyIds[getcltindex(clientid)].isaccepted = isaccepted;\n        clientsbyIds[getcltindex(clientid)].isprocessed = true;}\n    }\n    function cltname(uint256 id) public view   returns (string memory){\n      if (ClientExistsById(id)){\n          return clientsbyIds[getcltindex(id)].name;\n      }\n      else\n      return \"notfound\";\n    }\n    function getclients() public view onlyOwner returns (client[] memory){\n        client[] memory clients = new  client[](ClientsCount);\n    for (uint i = 0; i < ClientsCount; i++) {\n        clients[i] = clientsbyIds[i];\n    }\n        return clients;\n    }\n}\n",
  "sourcePath": "C:\\Users\\SBS\\Desktop\\Work\\BlockChainProject\\TruffleProject\\contracts\\ClientsRegistry.sol",
  "compiler": {
    "name": "solc",
    "version": "0.8.17+commit.8df45f5f.Emscripten.clang"
  },
  "schemaVersion": "3.4.11",
  "updatedAt": "2022-12-07T10:04:03.843Z",
  "networkType": "ethereum",
  "devdoc": {
    "kind": "dev",
    "methods": {},
    "version": 1
  },
  "userdoc": {
    "kind": "user",
    "methods": {},
    "version": 1
  }
}